{
  "address": "0x5FbDB2315678afecb367f032d93F642f64180aa3",
  "abi": [
    {
      "inputs": [],
      "stateMutability": "nonpayable",
      "type": "constructor"
    },
    {
      "anonymous": false,
      "inputs": [
        {
          "indexed": true,
          "internalType": "address",
          "name": "previousOwner",
          "type": "address"
        },
        {
          "indexed": true,
          "internalType": "address",
          "name": "newOwner",
          "type": "address"
        }
      ],
      "name": "OwnershipTransferred",
      "type": "event"
    },
    {
      "stateMutability": "payable",
      "type": "fallback"
    },
    {
      "inputs": [],
      "name": "getFunds",
      "outputs": [],
      "stateMutability": "nonpayable",
      "type": "function"
    },
    {
      "inputs": [],
      "name": "mintAmout",
      "outputs": [
        {
          "internalType": "uint256",
          "name": "",
          "type": "uint256"
        }
      ],
      "stateMutability": "view",
      "type": "function"
    },
    {
      "inputs": [],
      "name": "owner",
      "outputs": [
        {
          "internalType": "address",
          "name": "",
          "type": "address"
        }
      ],
      "stateMutability": "view",
      "type": "function"
    },
    {
      "inputs": [],
      "name": "renounceOwnership",
      "outputs": [],
      "stateMutability": "nonpayable",
      "type": "function"
    },
    {
      "inputs": [],
      "name": "sale",
      "outputs": [
        {
          "internalType": "contract Sale",
          "name": "",
          "type": "address"
        }
      ],
      "stateMutability": "view",
      "type": "function"
    },
    {
      "inputs": [],
      "name": "saleAmount",
      "outputs": [
        {
          "internalType": "uint256",
          "name": "",
          "type": "uint256"
        }
      ],
      "stateMutability": "view",
      "type": "function"
    },
    {
      "inputs": [
        {
          "internalType": "address",
          "name": "_receiver",
          "type": "address"
        }
      ],
      "name": "sendFunds",
      "outputs": [],
      "stateMutability": "nonpayable",
      "type": "function"
    },
    {
      "inputs": [],
      "name": "token",
      "outputs": [
        {
          "internalType": "contract EngToken",
          "name": "",
          "type": "address"
        }
      ],
      "stateMutability": "view",
      "type": "function"
    },
    {
      "inputs": [
        {
          "internalType": "address",
          "name": "newOwner",
          "type": "address"
        }
      ],
      "name": "transferOwnership",
      "outputs": [],
      "stateMutability": "nonpayable",
      "type": "function"
    },
    {
      "stateMutability": "payable",
      "type": "receive"
    }
  ],
  "transactionHash": "0xb5aa525298445f6e3940bc14e5e1ad089b519925a066d924cd46f7b22971df4b",
  "args": [],
  "numDeployments": 1,
  "solcInputHash": "062b2292b22784163f42e6590cfbec28",
  "bytecode": "0x6080604052683635c9adc5dea00000600155678ac7230489e800006002553480156200002a57600080fd5b506200004b6200003f6200024860201b60201c565b6200025060201b60201c565b6001546040516200005c9062000314565b6200006891906200034b565b604051809103906000f08015801562000085573d6000803e3d6000fd5b50600460006101000a81548173ffffffffffffffffffffffffffffffffffffffff021916908373ffffffffffffffffffffffffffffffffffffffff160217905550600460009054906101000a900473ffffffffffffffffffffffffffffffffffffffff16600162278d0042620000fc919062000397565b306040516200010b9062000322565b6200011a949392919062000464565b604051809103906000f08015801562000137573d6000803e3d6000fd5b50600360006101000a81548173ffffffffffffffffffffffffffffffffffffffff021916908373ffffffffffffffffffffffffffffffffffffffff160217905550600460009054906101000a900473ffffffffffffffffffffffffffffffffffffffff1673ffffffffffffffffffffffffffffffffffffffff1663095ea7b3600360009054906101000a900473ffffffffffffffffffffffffffffffffffffffff166002546040518363ffffffff1660e01b8152600401620001fb929190620004b1565b6020604051808303816000875af11580156200021b573d6000803e3d6000fd5b505050506040513d601f19601f8201168201806040525081019062000241919062000520565b5062000552565b600033905090565b60008060009054906101000a900473ffffffffffffffffffffffffffffffffffffffff169050816000806101000a81548173ffffffffffffffffffffffffffffffffffffffff021916908373ffffffffffffffffffffffffffffffffffffffff1602179055508173ffffffffffffffffffffffffffffffffffffffff168173ffffffffffffffffffffffffffffffffffffffff167f8be0079c531659141344cd1fd0a4f28419497f9722a3daafe3b4186f6b6457e060405160405180910390a35050565b614c518062000e9f83390190565b61112c8062005af083390190565b6000819050919050565b620003458162000330565b82525050565b60006020820190506200036260008301846200033a565b92915050565b7f4e487b7100000000000000000000000000000000000000000000000000000000600052601160045260246000fd5b6000620003a48262000330565b9150620003b18362000330565b9250828201905080821115620003cc57620003cb62000368565b5b92915050565b600073ffffffffffffffffffffffffffffffffffffffff82169050919050565b6000620003ff82620003d2565b9050919050565b6200041181620003f2565b82525050565b6000819050919050565b6000819050919050565b60006200044c62000446620004408462000417565b62000421565b62000330565b9050919050565b6200045e816200042b565b82525050565b60006080820190506200047b600083018762000406565b6200048a602083018662000453565b6200049960408301856200033a565b620004a8606083018462000406565b95945050505050565b6000604082019050620004c8600083018562000406565b620004d760208301846200033a565b9392505050565b600080fd5b60008115159050919050565b620004fa81620004e3565b81146200050657600080fd5b50565b6000815190506200051a81620004ef565b92915050565b600060208284031215620005395762000538620004de565b5b6000620005498482850162000509565b91505092915050565b61093d80620005626000396000f3fe60806040526004361061008a5760003560e01c80638da5cb5b116100595780638da5cb5b14610117578063cfe52bdd14610142578063e371ff271461016b578063f2fde38b14610196578063fc0c546a146101bf57610091565b80634d9b3735146100935780636ad1fe02146100aa578063715018a6146100d55780638aae995a146100ec57610091565b3661009157005b005b34801561009f57600080fd5b506100a86101ea565b005b3480156100b657600080fd5b506100bf610276565b6040516100cc919061060f565b60405180910390f35b3480156100e157600080fd5b506100ea61029c565b005b3480156100f857600080fd5b506101016102b0565b60405161010e9190610643565b60405180910390f35b34801561012357600080fd5b5061012c6102b6565b604051610139919061067f565b60405180910390f35b34801561014e57600080fd5b50610169600480360381019061016491906106cb565b6102df565b005b34801561017757600080fd5b50610180610397565b60405161018d9190610643565b60405180910390f35b3480156101a257600080fd5b506101bd60048036038101906101b891906106cb565b61039d565b005b3480156101cb57600080fd5b506101d4610420565b6040516101e1919061072b565b60405180910390f35b6101f2610446565b600360009054906101000a900473ffffffffffffffffffffffffffffffffffffffff1673ffffffffffffffffffffffffffffffffffffffff166324600fc36040518163ffffffff1660e01b8152600401600060405180830381600087803b15801561025c57600080fd5b505af1158015610270573d6000803e3d6000fd5b50505050565b600360009054906101000a900473ffffffffffffffffffffffffffffffffffffffff1681565b6102a4610446565b6102ae60006104c4565b565b60025481565b60008060009054906101000a900473ffffffffffffffffffffffffffffffffffffffff16905090565b6102e7610446565b60008173ffffffffffffffffffffffffffffffffffffffff164760405161030d90610777565b60006040518083038185875af1925050503d806000811461034a576040519150601f19603f3d011682016040523d82523d6000602084013e61034f565b606091505b5050905080610393576040517f08c379a000000000000000000000000000000000000000000000000000000000815260040161038a906107e9565b60405180910390fd5b5050565b60015481565b6103a5610446565b600073ffffffffffffffffffffffffffffffffffffffff168173ffffffffffffffffffffffffffffffffffffffff1603610414576040517f08c379a000000000000000000000000000000000000000000000000000000000815260040161040b9061087b565b60405180910390fd5b61041d816104c4565b50565b600460009054906101000a900473ffffffffffffffffffffffffffffffffffffffff1681565b61044e610588565b73ffffffffffffffffffffffffffffffffffffffff1661046c6102b6565b73ffffffffffffffffffffffffffffffffffffffff16146104c2576040517f08c379a00000000000000000000000000000000000000000000000000000000081526004016104b9906108e7565b60405180910390fd5b565b60008060009054906101000a900473ffffffffffffffffffffffffffffffffffffffff169050816000806101000a81548173ffffffffffffffffffffffffffffffffffffffff021916908373ffffffffffffffffffffffffffffffffffffffff1602179055508173ffffffffffffffffffffffffffffffffffffffff168173ffffffffffffffffffffffffffffffffffffffff167f8be0079c531659141344cd1fd0a4f28419497f9722a3daafe3b4186f6b6457e060405160405180910390a35050565b600033905090565b600073ffffffffffffffffffffffffffffffffffffffff82169050919050565b6000819050919050565b60006105d56105d06105cb84610590565b6105b0565b610590565b9050919050565b60006105e7826105ba565b9050919050565b60006105f9826105dc565b9050919050565b610609816105ee565b82525050565b60006020820190506106246000830184610600565b92915050565b6000819050919050565b61063d8161062a565b82525050565b60006020820190506106586000830184610634565b92915050565b600061066982610590565b9050919050565b6106798161065e565b82525050565b60006020820190506106946000830184610670565b92915050565b600080fd5b6106a88161065e565b81146106b357600080fd5b50565b6000813590506106c58161069f565b92915050565b6000602082840312156106e1576106e061069a565b5b60006106ef848285016106b6565b91505092915050565b6000610703826105ba565b9050919050565b6000610715826106f8565b9050919050565b6107258161070a565b82525050565b6000602082019050610740600083018461071c565b92915050565b600081905092915050565b50565b6000610761600083610746565b915061076c82610751565b600082019050919050565b600061078282610754565b9150819050919050565b600082825260208201905092915050565b7f4661696c656420746f2073656e642066756e6473000000000000000000000000600082015250565b60006107d360148361078c565b91506107de8261079d565b602082019050919050565b60006020820190508181036000830152610802816107c6565b9050919050565b7f4f776e61626c653a206e6577206f776e657220697320746865207a65726f206160008201527f6464726573730000000000000000000000000000000000000000000000000000602082015250565b600061086560268361078c565b915061087082610809565b604082019050919050565b6000602082019050818103600083015261089481610858565b9050919050565b7f4f776e61626c653a2063616c6c6572206973206e6f7420746865206f776e6572600082015250565b60006108d160208361078c565b91506108dc8261089b565b602082019050919050565b60006020820190508181036000830152610900816108c4565b905091905056fea26469706673582212200b0514708e95e2683071c124b8c93372a21bb65af19a0ec352d917d2a5c5cdb364736f6c634300081100336101406040523480156200001257600080fd5b5060405162004c5138038062004c51833981810160405281019062000038919062000c0c565b6040518060400160405280600881526020017f456e67546f6b656e000000000000000000000000000000000000000000000000815250806040518060400160405280600181526020017f31000000000000000000000000000000000000000000000000000000000000008152506040518060400160405280600881526020017f456e67546f6b656e0000000000000000000000000000000000000000000000008152506040518060400160405280600381526020017f454e470000000000000000000000000000000000000000000000000000000000815250816003908162000122919062000eae565b50806004908162000134919062000eae565b50505060008280519060200120905060008280519060200120905060007f8b73c3c69bb8fe3d512ecc4cf759cc79239f7b179b0ffacaa9a75d522b39400f90508260e081815250508161010081815250504660a08181525050620001a08184846200020360201b60201c565b608081815250503073ffffffffffffffffffffffffffffffffffffffff1660c08173ffffffffffffffffffffffffffffffffffffffff1681525050806101208181525050505050505050620001fc33826200023f60201b60201c565b506200139d565b600083838346306040516020016200022095949392919062001006565b6040516020818303038152906040528051906020012090509392505050565b6200025682826200025a60201b62000e7b1760201c565b5050565b6200027182826200031860201b62000f081760201c565b620002816200048560201b60201c565b7bffffffffffffffffffffffffffffffffffffffffffffffffffffffff16620002af620004a960201b60201c565b1115620002f3576040517f08c379a0000000000000000000000000000000000000000000000000000000008152600401620002ea90620010ea565b60405180910390fd5b620003126009620004b360201b6200105e1783620004cb60201b60201c565b50505050565b600073ffffffffffffffffffffffffffffffffffffffff168273ffffffffffffffffffffffffffffffffffffffff16036200038a576040517f08c379a000000000000000000000000000000000000000000000000000000000815260040162000381906200115c565b60405180910390fd5b6200039e60008383620007d860201b60201c565b8060026000828254620003b29190620011ad565b92505081905550806000808473ffffffffffffffffffffffffffffffffffffffff1673ffffffffffffffffffffffffffffffffffffffff168152602001908152602001600020600082825401925050819055508173ffffffffffffffffffffffffffffffffffffffff16600073ffffffffffffffffffffffffffffffffffffffff167fddf252ad1be2c89b69c2b068fc378daa952ba7f163c4a11628f55a4df523b3ef83604051620004659190620011e8565b60405180910390a36200048160008383620007dd60201b60201c565b5050565b60007bffffffffffffffffffffffffffffffffffffffffffffffffffffffff905090565b6000600254905090565b60008183620004c39190620011ad565b905092915050565b6000806000858054905090506000808214620005a6576200050187600184620004f5919062001205565b620007fa60201b60201c565b6040518060400160405290816000820160009054906101000a900463ffffffff1663ffffffff1663ffffffff1681526020016000820160049054906101000a90047bffffffffffffffffffffffffffffffffffffffffffffffffffffffff167bffffffffffffffffffffffffffffffffffffffffffffffffffffffff167bffffffffffffffffffffffffffffffffffffffffffffffffffffffff1681525050620005e2565b6040518060400160405280600063ffffffff16815260200160007bffffffffffffffffffffffffffffffffffffffffffffffffffffffff168152505b905080602001517bffffffffffffffffffffffffffffffffffffffffffffffffffffffff1693506200061584868860201c565b925060008211801562000631575043816000015163ffffffff16145b15620006c4576200064d836200080f60201b620010741760201c565b6200066d8860018562000661919062001205565b620007fa60201b60201c565b60000160046101000a8154817bffffffffffffffffffffffffffffffffffffffffffffffffffffffff02191690837bffffffffffffffffffffffffffffffffffffffffffffffffffffffff160217905550620007ce565b866040518060400160405280620006e6436200087d60201b620010df1760201c565b63ffffffff16815260200162000707866200080f60201b620010741760201c565b7bffffffffffffffffffffffffffffffffffffffffffffffffffffffff168152509080600181540180825580915050600190039060005260206000200160009091909190915060008201518160000160006101000a81548163ffffffff021916908363ffffffff16021790555060208201518160000160046101000a8154817bffffffffffffffffffffffffffffffffffffffffffffffffffffffff02191690837bffffffffffffffffffffffffffffffffffffffffffffffffffffffff16021790555050505b5050935093915050565b505050565b620007f5838383620008d360201b620011321760201c565b505050565b60008260005281602060002001905092915050565b60007bffffffffffffffffffffffffffffffffffffffffffffffffffffffff801682111562000875576040517f08c379a00000000000000000000000000000000000000000000000000000000081526004016200086c90620012b6565b60405180910390fd5b819050919050565b600063ffffffff8016821115620008cb576040517f08c379a0000000000000000000000000000000000000000000000000000000008152600401620008c2906200134e565b60405180910390fd5b819050919050565b620008eb8383836200092360201b6200115d1760201c565b6200091e62000900846200092860201b60201c565b62000911846200092860201b60201c565b836200099160201b60201c565b505050565b505050565b6000600760008373ffffffffffffffffffffffffffffffffffffffff1673ffffffffffffffffffffffffffffffffffffffff16815260200190815260200160002060009054906101000a900473ffffffffffffffffffffffffffffffffffffffff169050919050565b8173ffffffffffffffffffffffffffffffffffffffff168373ffffffffffffffffffffffffffffffffffffffff1614158015620009ce5750600081115b1562000baf57600073ffffffffffffffffffffffffffffffffffffffff168373ffffffffffffffffffffffffffffffffffffffff161462000ac15760008062000a68600860008773ffffffffffffffffffffffffffffffffffffffff1673ffffffffffffffffffffffffffffffffffffffff16815260200190815260200160002062000bb460201b620011621785620004cb60201b60201c565b915091508473ffffffffffffffffffffffffffffffffffffffff167fdec2bacdd2f05b59de34da9b523dff8be42e5e38e818c82fdb0bae774387a724838360405162000ab692919062001370565b60405180910390a250505b600073ffffffffffffffffffffffffffffffffffffffff168273ffffffffffffffffffffffffffffffffffffffff161462000bae5760008062000b55600860008673ffffffffffffffffffffffffffffffffffffffff1673ffffffffffffffffffffffffffffffffffffffff168152602001908152602001600020620004b360201b6200105e1785620004cb60201b60201c565b915091508373ffffffffffffffffffffffffffffffffffffffff167fdec2bacdd2f05b59de34da9b523dff8be42e5e38e818c82fdb0bae774387a724838360405162000ba392919062001370565b60405180910390a250505b5b505050565b6000818362000bc4919062001205565b905092915050565b600080fd5b6000819050919050565b62000be68162000bd1565b811462000bf257600080fd5b50565b60008151905062000c068162000bdb565b92915050565b60006020828403121562000c255762000c2462000bcc565b5b600062000c358482850162000bf5565b91505092915050565b600081519050919050565b7f4e487b7100000000000000000000000000000000000000000000000000000000600052604160045260246000fd5b7f4e487b7100000000000000000000000000000000000000000000000000000000600052602260045260246000fd5b6000600282049050600182168062000cc057607f821691505b60208210810362000cd65762000cd562000c78565b5b50919050565b60008190508160005260206000209050919050565b60006020601f8301049050919050565b600082821b905092915050565b60006008830262000d407fffffffffffffffffffffffffffffffffffffffffffffffffffffffffffffffff8262000d01565b62000d4c868362000d01565b95508019841693508086168417925050509392505050565b6000819050919050565b600062000d8f62000d8962000d838462000bd1565b62000d64565b62000bd1565b9050919050565b6000819050919050565b62000dab8362000d6e565b62000dc362000dba8262000d96565b84845462000d0e565b825550505050565b600090565b62000dda62000dcb565b62000de781848462000da0565b505050565b5b8181101562000e0f5762000e0360008262000dd0565b60018101905062000ded565b5050565b601f82111562000e5e5762000e288162000cdc565b62000e338462000cf1565b8101602085101562000e43578190505b62000e5b62000e528562000cf1565b83018262000dec565b50505b505050565b600082821c905092915050565b600062000e836000198460080262000e63565b1980831691505092915050565b600062000e9e838362000e70565b9150826002028217905092915050565b62000eb98262000c3e565b67ffffffffffffffff81111562000ed55762000ed462000c49565b5b62000ee1825462000ca7565b62000eee82828562000e13565b600060209050601f83116001811462000f26576000841562000f11578287015190505b62000f1d858262000e90565b86555062000f8d565b601f19841662000f368662000cdc565b60005b8281101562000f605784890151825560018201915060208501945060208101905062000f39565b8683101562000f80578489015162000f7c601f89168262000e70565b8355505b6001600288020188555050505b505050505050565b6000819050919050565b62000faa8162000f95565b82525050565b62000fbb8162000bd1565b82525050565b600073ffffffffffffffffffffffffffffffffffffffff82169050919050565b600062000fee8262000fc1565b9050919050565b620010008162000fe1565b82525050565b600060a0820190506200101d600083018862000f9f565b6200102c602083018762000f9f565b6200103b604083018662000f9f565b6200104a606083018562000fb0565b62001059608083018462000ff5565b9695505050505050565b600082825260208201905092915050565b7f4552433230566f7465733a20746f74616c20737570706c79207269736b73206f60008201527f766572666c6f77696e6720766f74657300000000000000000000000000000000602082015250565b6000620010d260308362001063565b9150620010df8262001074565b604082019050919050565b600060208201905081810360008301526200110581620010c3565b9050919050565b7f45524332303a206d696e7420746f20746865207a65726f206164647265737300600082015250565b600062001144601f8362001063565b915062001151826200110c565b602082019050919050565b60006020820190508181036000830152620011778162001135565b9050919050565b7f4e487b7100000000000000000000000000000000000000000000000000000000600052601160045260246000fd5b6000620011ba8262000bd1565b9150620011c78362000bd1565b9250828201905080821115620011e257620011e16200117e565b5b92915050565b6000602082019050620011ff600083018462000fb0565b92915050565b6000620012128262000bd1565b91506200121f8362000bd1565b92508282039050818111156200123a57620012396200117e565b5b92915050565b7f53616665436173743a2076616c756520646f65736e27742066697420696e203260008201527f3234206269747300000000000000000000000000000000000000000000000000602082015250565b60006200129e60278362001063565b9150620012ab8262001240565b604082019050919050565b60006020820190508181036000830152620012d1816200128f565b9050919050565b7f53616665436173743a2076616c756520646f65736e27742066697420696e203360008201527f3220626974730000000000000000000000000000000000000000000000000000602082015250565b60006200133660268362001063565b91506200134382620012d8565b604082019050919050565b60006020820190508181036000830152620013698162001327565b9050919050565b600060408201905062001387600083018562000fb0565b62001396602083018462000fb0565b9392505050565b60805160a05160c05160e0516101005161012051613864620013ed60003960006116f90152600061173b0152600061171a0152600061164f015260006116a5015260006116ce01526138646000f3fe608060405234801561001057600080fd5b50600436106101425760003560e01c806370a08231116100b8578063a457c2d71161007c578063a457c2d7146103d9578063a9059cbb14610409578063c3cda52014610439578063d505accf14610455578063dd62ed3e14610471578063f1127ed8146104a157610142565b806370a08231146102fb5780637ecebe001461032b5780638e539e8c1461035b57806395d89b411461038b5780639ab24eb0146103a957610142565b80633644e5151161010a5780633644e51514610201578063395093511461021f5780633a46b1a81461024f578063587cde1e1461027f5780635c19a95c146102af5780636fcfff45146102cb57610142565b806306fdde0314610147578063095ea7b31461016557806318160ddd1461019557806323b872dd146101b3578063313ce567146101e3575b600080fd5b61014f6104d1565b60405161015c9190612549565b60405180910390f35b61017f600480360381019061017a9190612604565b610563565b60405161018c919061265f565b60405180910390f35b61019d610586565b6040516101aa9190612689565b60405180910390f35b6101cd60048036038101906101c891906126a4565b610590565b6040516101da919061265f565b60405180910390f35b6101eb6105bf565b6040516101f89190612713565b60405180910390f35b6102096105c8565b6040516102169190612747565b60405180910390f35b61023960048036038101906102349190612604565b6105d7565b604051610246919061265f565b60405180910390f35b61026960048036038101906102649190612604565b61060e565b6040516102769190612689565b60405180910390f35b61029960048036038101906102949190612762565b6106a2565b6040516102a6919061279e565b60405180910390f35b6102c960048036038101906102c49190612762565b61070b565b005b6102e560048036038101906102e09190612762565b61071f565b6040516102f291906127d8565b60405180910390f35b61031560048036038101906103109190612762565b610773565b6040516103229190612689565b60405180910390f35b61034560048036038101906103409190612762565b6107bb565b6040516103529190612689565b60405180910390f35b610375600480360381019061037091906127f3565b61080b565b6040516103829190612689565b60405180910390f35b610393610861565b6040516103a09190612549565b60405180910390f35b6103c360048036038101906103be9190612762565b6108f3565b6040516103d09190612689565b60405180910390f35b6103f360048036038101906103ee9190612604565b610a04565b604051610400919061265f565b60405180910390f35b610423600480360381019061041e9190612604565b610a7b565b604051610430919061265f565b60405180910390f35b610453600480360381019061044e9190612878565b610a9e565b005b61046f600480360381019061046a9190612905565b610ba2565b005b61048b600480360381019061048691906129a7565b610ce4565b6040516104989190612689565b60405180910390f35b6104bb60048036038101906104b69190612a13565b610d6b565b6040516104c89190612ac8565b60405180910390f35b6060600380546104e090612b12565b80601f016020809104026020016040519081016040528092919081815260200182805461050c90612b12565b80156105595780601f1061052e57610100808354040283529160200191610559565b820191906000526020600020905b81548152906001019060200180831161053c57829003601f168201915b5050505050905090565b60008061056e611178565b905061057b818585611180565b600191505092915050565b6000600254905090565b60008061059b611178565b90506105a8858285611349565b6105b38585856113d5565b60019150509392505050565b60006012905090565b60006105d261164b565b905090565b6000806105e2611178565b90506106038185856105f48589610ce4565b6105fe9190612b72565b611180565b600191505092915050565b6000438210610652576040517f08c379a000000000000000000000000000000000000000000000000000000000815260040161064990612bf2565b60405180910390fd5b61069a600860008573ffffffffffffffffffffffffffffffffffffffff1673ffffffffffffffffffffffffffffffffffffffff16815260200190815260200160002083611765565b905092915050565b6000600760008373ffffffffffffffffffffffffffffffffffffffff1673ffffffffffffffffffffffffffffffffffffffff16815260200190815260200160002060009054906101000a900473ffffffffffffffffffffffffffffffffffffffff169050919050565b61071c610716611178565b826118b6565b50565b600061076c600860008473ffffffffffffffffffffffffffffffffffffffff1673ffffffffffffffffffffffffffffffffffffffff168152602001908152602001600020805490506110df565b9050919050565b60008060008373ffffffffffffffffffffffffffffffffffffffff1673ffffffffffffffffffffffffffffffffffffffff168152602001908152602001600020549050919050565b6000610804600560008473ffffffffffffffffffffffffffffffffffffffff1673ffffffffffffffffffffffffffffffffffffffff1681526020019081526020016000206119d0565b9050919050565b600043821061084f576040517f08c379a000000000000000000000000000000000000000000000000000000000815260040161084690612bf2565b60405180910390fd5b61085a600983611765565b9050919050565b60606004805461087090612b12565b80601f016020809104026020016040519081016040528092919081815260200182805461089c90612b12565b80156108e95780601f106108be576101008083540402835291602001916108e9565b820191906000526020600020905b8154815290600101906020018083116108cc57829003601f168201915b5050505050905090565b600080600860008473ffffffffffffffffffffffffffffffffffffffff1673ffffffffffffffffffffffffffffffffffffffff168152602001908152602001600020805490509050600081146109db57600860008473ffffffffffffffffffffffffffffffffffffffff1673ffffffffffffffffffffffffffffffffffffffff16815260200190815260200160002060018261098f9190612c12565b815481106109a05761099f612c46565b5b9060005260206000200160000160049054906101000a90047bffffffffffffffffffffffffffffffffffffffffffffffffffffffff166109de565b60005b7bffffffffffffffffffffffffffffffffffffffffffffffffffffffff16915050919050565b600080610a0f611178565b90506000610a1d8286610ce4565b905083811015610a62576040517f08c379a0000000000000000000000000000000000000000000000000000000008152600401610a5990612ce7565b60405180910390fd5b610a6f8286868403611180565b60019250505092915050565b600080610a86611178565b9050610a938185856113d5565b600191505092915050565b83421115610ae1576040517f08c379a0000000000000000000000000000000000000000000000000000000008152600401610ad890612d53565b60405180910390fd5b6000610b43610b3b7fe48329057bfd03d55e49b547132e39cffd9c1820ad7b9d4c5307691425d15adf898989604051602001610b209493929190612d73565b604051602081830303815290604052805190602001206119de565b8585856119f8565b9050610b4e81611a23565b8614610b8f576040517f08c379a0000000000000000000000000000000000000000000000000000000008152600401610b8690612e04565b60405180910390fd5b610b9981886118b6565b50505050505050565b83421115610be5576040517f08c379a0000000000000000000000000000000000000000000000000000000008152600401610bdc90612e70565b60405180910390fd5b60007f6e71edae12b1b97f4d1f60370fef10105fa2faae0126114a169c64845d6126c9888888610c148c611a23565b89604051602001610c2a96959493929190612e90565b6040516020818303038152906040528051906020012090506000610c4d826119de565b90506000610c5d828787876119f8565b90508973ffffffffffffffffffffffffffffffffffffffff168173ffffffffffffffffffffffffffffffffffffffff1614610ccd576040517f08c379a0000000000000000000000000000000000000000000000000000000008152600401610cc490612f3d565b60405180910390fd5b610cd88a8a8a611180565b50505050505050505050565b6000600160008473ffffffffffffffffffffffffffffffffffffffff1673ffffffffffffffffffffffffffffffffffffffff16815260200190815260200160002060008373ffffffffffffffffffffffffffffffffffffffff1673ffffffffffffffffffffffffffffffffffffffff16815260200190815260200160002054905092915050565b610d7361247b565b600860008473ffffffffffffffffffffffffffffffffffffffff1673ffffffffffffffffffffffffffffffffffffffff1681526020019081526020016000208263ffffffff1681548110610dca57610dc9612c46565b5b906000526020600020016040518060400160405290816000820160009054906101000a900463ffffffff1663ffffffff1663ffffffff1681526020016000820160049054906101000a90047bffffffffffffffffffffffffffffffffffffffffffffffffffffffff167bffffffffffffffffffffffffffffffffffffffffffffffffffffffff167bffffffffffffffffffffffffffffffffffffffffffffffffffffffff1681525050905092915050565b610e858282610f08565b610e8d611a81565b7bffffffffffffffffffffffffffffffffffffffffffffffffffffffff16610eb3610586565b1115610ef4576040517f08c379a0000000000000000000000000000000000000000000000000000000008152600401610eeb90612fcf565b60405180910390fd5b610f02600961105e83611aa5565b50505050565b600073ffffffffffffffffffffffffffffffffffffffff168273ffffffffffffffffffffffffffffffffffffffff1603610f77576040517f08c379a0000000000000000000000000000000000000000000000000000000008152600401610f6e9061303b565b60405180910390fd5b610f8360008383611d74565b8060026000828254610f959190612b72565b92505081905550806000808473ffffffffffffffffffffffffffffffffffffffff1673ffffffffffffffffffffffffffffffffffffffff168152602001908152602001600020600082825401925050819055508173ffffffffffffffffffffffffffffffffffffffff16600073ffffffffffffffffffffffffffffffffffffffff167fddf252ad1be2c89b69c2b068fc378daa952ba7f163c4a11628f55a4df523b3ef836040516110469190612689565b60405180910390a361105a60008383611d79565b5050565b6000818361106c9190612b72565b905092915050565b60007bffffffffffffffffffffffffffffffffffffffffffffffffffffffff80168211156110d7576040517f08c379a00000000000000000000000000000000000000000000000000000000081526004016110ce906130cd565b60405180910390fd5b819050919050565b600063ffffffff801682111561112a576040517f08c379a00000000000000000000000000000000000000000000000000000000081526004016111219061315f565b60405180910390fd5b819050919050565b61113d83838361115d565b611158611149846106a2565b611152846106a2565b83611d89565b505050565b505050565b600081836111709190612c12565b905092915050565b600033905090565b600073ffffffffffffffffffffffffffffffffffffffff168373ffffffffffffffffffffffffffffffffffffffff16036111ef576040517f08c379a00000000000000000000000000000000000000000000000000000000081526004016111e6906131f1565b60405180910390fd5b600073ffffffffffffffffffffffffffffffffffffffff168273ffffffffffffffffffffffffffffffffffffffff160361125e576040517f08c379a000000000000000000000000000000000000000000000000000000000815260040161125590613283565b60405180910390fd5b80600160008573ffffffffffffffffffffffffffffffffffffffff1673ffffffffffffffffffffffffffffffffffffffff16815260200190815260200160002060008473ffffffffffffffffffffffffffffffffffffffff1673ffffffffffffffffffffffffffffffffffffffff168152602001908152602001600020819055508173ffffffffffffffffffffffffffffffffffffffff168373ffffffffffffffffffffffffffffffffffffffff167f8c5be1e5ebec7d5bd14f71427d1e84f3dd0314c0f7b2291e5b200ac8c7c3b9258360405161133c9190612689565b60405180910390a3505050565b60006113558484610ce4565b90507fffffffffffffffffffffffffffffffffffffffffffffffffffffffffffffffff81146113cf57818110156113c1576040517f08c379a00000000000000000000000000000000000000000000000000000000081526004016113b8906132ef565b60405180910390fd5b6113ce8484848403611180565b5b50505050565b600073ffffffffffffffffffffffffffffffffffffffff168373ffffffffffffffffffffffffffffffffffffffff1603611444576040517f08c379a000000000000000000000000000000000000000000000000000000000815260040161143b90613381565b60405180910390fd5b600073ffffffffffffffffffffffffffffffffffffffff168273ffffffffffffffffffffffffffffffffffffffff16036114b3576040517f08c379a00000000000000000000000000000000000000000000000000000000081526004016114aa90613413565b60405180910390fd5b6114be838383611d74565b60008060008573ffffffffffffffffffffffffffffffffffffffff1673ffffffffffffffffffffffffffffffffffffffff16815260200190815260200160002054905081811015611544576040517f08c379a000000000000000000000000000000000000000000000000000000000815260040161153b906134a5565b60405180910390fd5b8181036000808673ffffffffffffffffffffffffffffffffffffffff1673ffffffffffffffffffffffffffffffffffffffff16815260200190815260200160002081905550816000808573ffffffffffffffffffffffffffffffffffffffff1673ffffffffffffffffffffffffffffffffffffffff168152602001908152602001600020600082825401925050819055508273ffffffffffffffffffffffffffffffffffffffff168473ffffffffffffffffffffffffffffffffffffffff167fddf252ad1be2c89b69c2b068fc378daa952ba7f163c4a11628f55a4df523b3ef846040516116329190612689565b60405180910390a3611645848484611d79565b50505050565b60007f000000000000000000000000000000000000000000000000000000000000000073ffffffffffffffffffffffffffffffffffffffff163073ffffffffffffffffffffffffffffffffffffffff161480156116c757507f000000000000000000000000000000000000000000000000000000000000000046145b156116f4577f00000000000000000000000000000000000000000000000000000000000000009050611762565b61175f7f00000000000000000000000000000000000000000000000000000000000000007f00000000000000000000000000000000000000000000000000000000000000007f0000000000000000000000000000000000000000000000000000000000000000611f82565b90505b90565b6000808380549050905060008082905060058311156117db57600061178984611fbc565b846117949190612c12565b9050856117a188836120b5565b60000160009054906101000a900463ffffffff1663ffffffff1611156117c9578091506117d9565b6001816117d69190612b72565b92505b505b5b8082101561183b5760006117f083836120ca565b9050856117fd88836120b5565b60000160009054906101000a900463ffffffff1663ffffffff16111561182557809150611835565b6001816118329190612b72565b92505b506117dc565b6000811461188a57611859866001836118549190612c12565b6120b5565b60000160049054906101000a90047bffffffffffffffffffffffffffffffffffffffffffffffffffffffff1661188d565b60005b7bffffffffffffffffffffffffffffffffffffffffffffffffffffffff16935050505092915050565b60006118c1836106a2565b905060006118ce84610773565b905082600760008673ffffffffffffffffffffffffffffffffffffffff1673ffffffffffffffffffffffffffffffffffffffff16815260200190815260200160002060006101000a81548173ffffffffffffffffffffffffffffffffffffffff021916908373ffffffffffffffffffffffffffffffffffffffff1602179055508273ffffffffffffffffffffffffffffffffffffffff168273ffffffffffffffffffffffffffffffffffffffff168573ffffffffffffffffffffffffffffffffffffffff167f3134e8a2e6d97e929a7e54011ea5485d7d196dd5f0ba4d4ef95803e8e3fc257f60405160405180910390a46119ca828483611d89565b50505050565b600081600001549050919050565b60006119f16119eb61164b565b836120f0565b9050919050565b6000806000611a0987878787612123565b91509150611a1681612205565b8192505050949350505050565b600080600560008473ffffffffffffffffffffffffffffffffffffffff1673ffffffffffffffffffffffffffffffffffffffff1681526020019081526020016000209050611a70816119d0565b9150611a7b8161236b565b50919050565b60007bffffffffffffffffffffffffffffffffffffffffffffffffffffffff905090565b6000806000858054905090506000808214611b7457611ad087600184611acb9190612c12565b6120b5565b6040518060400160405290816000820160009054906101000a900463ffffffff1663ffffffff1663ffffffff1681526020016000820160049054906101000a90047bffffffffffffffffffffffffffffffffffffffffffffffffffffffff167bffffffffffffffffffffffffffffffffffffffffffffffffffffffff167bffffffffffffffffffffffffffffffffffffffffffffffffffffffff1681525050611bb0565b6040518060400160405280600063ffffffff16815260200160007bffffffffffffffffffffffffffffffffffffffffffffffffffffffff168152505b905080602001517bffffffffffffffffffffffffffffffffffffffffffffffffffffffff169350611be584868863ffffffff16565b9250600082118015611c00575043816000015163ffffffff16145b15611c7a57611c0e83611074565b611c2488600185611c1f9190612c12565b6120b5565b60000160046101000a8154817bffffffffffffffffffffffffffffffffffffffffffffffffffffffff02191690837bffffffffffffffffffffffffffffffffffffffffffffffffffffffff160217905550611d6a565b866040518060400160405280611c8f436110df565b63ffffffff168152602001611ca386611074565b7bffffffffffffffffffffffffffffffffffffffffffffffffffffffff168152509080600181540180825580915050600190039060005260206000200160009091909190915060008201518160000160006101000a81548163ffffffff021916908363ffffffff16021790555060208201518160000160046101000a8154817bffffffffffffffffffffffffffffffffffffffffffffffffffffffff02191690837bffffffffffffffffffffffffffffffffffffffffffffffffffffffff16021790555050505b5050935093915050565b505050565b611d84838383611132565b505050565b8173ffffffffffffffffffffffffffffffffffffffff168373ffffffffffffffffffffffffffffffffffffffff1614158015611dc55750600081115b15611f7d57600073ffffffffffffffffffffffffffffffffffffffff168373ffffffffffffffffffffffffffffffffffffffff1614611ea357600080611e4c600860008773ffffffffffffffffffffffffffffffffffffffff1673ffffffffffffffffffffffffffffffffffffffff16815260200190815260200160002061116285611aa5565b915091508473ffffffffffffffffffffffffffffffffffffffff167fdec2bacdd2f05b59de34da9b523dff8be42e5e38e818c82fdb0bae774387a7248383604051611e989291906134c5565b60405180910390a250505b600073ffffffffffffffffffffffffffffffffffffffff168273ffffffffffffffffffffffffffffffffffffffff1614611f7c57600080611f25600860008673ffffffffffffffffffffffffffffffffffffffff1673ffffffffffffffffffffffffffffffffffffffff16815260200190815260200160002061105e85611aa5565b915091508373ffffffffffffffffffffffffffffffffffffffff167fdec2bacdd2f05b59de34da9b523dff8be42e5e38e818c82fdb0bae774387a7248383604051611f719291906134c5565b60405180910390a250505b5b505050565b60008383834630604051602001611f9d9594939291906134ee565b6040516020818303038152906040528051906020012090509392505050565b6000808203611fce57600090506120b0565b60006001611fdb84612381565b901c6001901b90506001818481611ff557611ff4613541565b5b048201901c9050600181848161200e5761200d613541565b5b048201901c9050600181848161202757612026613541565b5b048201901c905060018184816120405761203f613541565b5b048201901c9050600181848161205957612058613541565b5b048201901c9050600181848161207257612071613541565b5b048201901c9050600181848161208b5761208a613541565b5b048201901c90506120ac818285816120a6576120a5613541565b5b04612462565b9150505b919050565b60008260005281602060002001905092915050565b600060028284186120db9190613570565b8284166120e89190612b72565b905092915050565b60008282604051602001612105929190613619565b60405160208183030381529060405280519060200120905092915050565b6000807f7fffffffffffffffffffffffffffffff5d576e7357a4501ddfe92f46681b20a08360001c111561215e5760006003915091506121fc565b6000600187878787604051600081526020016040526040516121839493929190613650565b6020604051602081039080840390855afa1580156121a5573d6000803e3d6000fd5b505050602060405103519050600073ffffffffffffffffffffffffffffffffffffffff168173ffffffffffffffffffffffffffffffffffffffff16036121f3576000600192509250506121fc565b80600092509250505b94509492505050565b6000600481111561221957612218613695565b5b81600481111561222c5761222b613695565b5b0315612368576001600481111561224657612245613695565b5b81600481111561225957612258613695565b5b03612299576040517f08c379a000000000000000000000000000000000000000000000000000000000815260040161229090613710565b60405180910390fd5b600260048111156122ad576122ac613695565b5b8160048111156122c0576122bf613695565b5b03612300576040517f08c379a00000000000000000000000000000000000000000000000000000000081526004016122f79061377c565b60405180910390fd5b6003600481111561231457612313613695565b5b81600481111561232757612326613695565b5b03612367576040517f08c379a000000000000000000000000000000000000000000000000000000000815260040161235e9061380e565b60405180910390fd5b5b50565b6001816000016000828254019250508190555050565b600080600090506000608084901c11156123a357608083901c92506080810190505b6000604084901c11156123be57604083901c92506040810190505b6000602084901c11156123d957602083901c92506020810190505b6000601084901c11156123f457601083901c92506010810190505b6000600884901c111561240f57600883901c92506008810190505b6000600484901c111561242a57600483901c92506004810190505b6000600284901c111561244557600283901c92506002810190505b6000600184901c1115612459576001810190505b80915050919050565b60008183106124715781612473565b825b905092915050565b6040518060400160405280600063ffffffff16815260200160007bffffffffffffffffffffffffffffffffffffffffffffffffffffffff1681525090565b600081519050919050565b600082825260208201905092915050565b60005b838110156124f35780820151818401526020810190506124d8565b60008484015250505050565b6000601f19601f8301169050919050565b600061251b826124b9565b61252581856124c4565b93506125358185602086016124d5565b61253e816124ff565b840191505092915050565b600060208201905081810360008301526125638184612510565b905092915050565b600080fd5b600073ffffffffffffffffffffffffffffffffffffffff82169050919050565b600061259b82612570565b9050919050565b6125ab81612590565b81146125b657600080fd5b50565b6000813590506125c8816125a2565b92915050565b6000819050919050565b6125e1816125ce565b81146125ec57600080fd5b50565b6000813590506125fe816125d8565b92915050565b6000806040838503121561261b5761261a61256b565b5b6000612629858286016125b9565b925050602061263a858286016125ef565b9150509250929050565b60008115159050919050565b61265981612644565b82525050565b60006020820190506126746000830184612650565b92915050565b612683816125ce565b82525050565b600060208201905061269e600083018461267a565b92915050565b6000806000606084860312156126bd576126bc61256b565b5b60006126cb868287016125b9565b93505060206126dc868287016125b9565b92505060406126ed868287016125ef565b9150509250925092565b600060ff82169050919050565b61270d816126f7565b82525050565b60006020820190506127286000830184612704565b92915050565b6000819050919050565b6127418161272e565b82525050565b600060208201905061275c6000830184612738565b92915050565b6000602082840312156127785761277761256b565b5b6000612786848285016125b9565b91505092915050565b61279881612590565b82525050565b60006020820190506127b3600083018461278f565b92915050565b600063ffffffff82169050919050565b6127d2816127b9565b82525050565b60006020820190506127ed60008301846127c9565b92915050565b6000602082840312156128095761280861256b565b5b6000612817848285016125ef565b91505092915050565b612829816126f7565b811461283457600080fd5b50565b60008135905061284681612820565b92915050565b6128558161272e565b811461286057600080fd5b50565b6000813590506128728161284c565b92915050565b60008060008060008060c087890312156128955761289461256b565b5b60006128a389828a016125b9565b96505060206128b489828a016125ef565b95505060406128c589828a016125ef565b94505060606128d689828a01612837565b93505060806128e789828a01612863565b92505060a06128f889828a01612863565b9150509295509295509295565b600080600080600080600060e0888a0312156129245761292361256b565b5b60006129328a828b016125b9565b97505060206129438a828b016125b9565b96505060406129548a828b016125ef565b95505060606129658a828b016125ef565b94505060806129768a828b01612837565b93505060a06129878a828b01612863565b92505060c06129988a828b01612863565b91505092959891949750929550565b600080604083850312156129be576129bd61256b565b5b60006129cc858286016125b9565b92505060206129dd858286016125b9565b9150509250929050565b6129f0816127b9565b81146129fb57600080fd5b50565b600081359050612a0d816129e7565b92915050565b60008060408385031215612a2a57612a2961256b565b5b6000612a38858286016125b9565b9250506020612a49858286016129fe565b9150509250929050565b612a5c816127b9565b82525050565b60007bffffffffffffffffffffffffffffffffffffffffffffffffffffffff82169050919050565b612a9381612a62565b82525050565b604082016000820151612aaf6000850182612a53565b506020820151612ac26020850182612a8a565b50505050565b6000604082019050612add6000830184612a99565b92915050565b7f4e487b7100000000000000000000000000000000000000000000000000000000600052602260045260246000fd5b60006002820490506001821680612b2a57607f821691505b602082108103612b3d57612b3c612ae3565b5b50919050565b7f4e487b7100000000000000000000000000000000000000000000000000000000600052601160045260246000fd5b6000612b7d826125ce565b9150612b88836125ce565b9250828201905080821115612ba057612b9f612b43565b5b92915050565b7f4552433230566f7465733a20626c6f636b206e6f7420796574206d696e656400600082015250565b6000612bdc601f836124c4565b9150612be782612ba6565b602082019050919050565b60006020820190508181036000830152612c0b81612bcf565b9050919050565b6000612c1d826125ce565b9150612c28836125ce565b9250828203905081811115612c4057612c3f612b43565b5b92915050565b7f4e487b7100000000000000000000000000000000000000000000000000000000600052603260045260246000fd5b7f45524332303a2064656372656173656420616c6c6f77616e63652062656c6f7760008201527f207a65726f000000000000000000000000000000000000000000000000000000602082015250565b6000612cd16025836124c4565b9150612cdc82612c75565b604082019050919050565b60006020820190508181036000830152612d0081612cc4565b9050919050565b7f4552433230566f7465733a207369676e61747572652065787069726564000000600082015250565b6000612d3d601d836124c4565b9150612d4882612d07565b602082019050919050565b60006020820190508181036000830152612d6c81612d30565b9050919050565b6000608082019050612d886000830187612738565b612d95602083018661278f565b612da2604083018561267a565b612daf606083018461267a565b95945050505050565b7f4552433230566f7465733a20696e76616c6964206e6f6e636500000000000000600082015250565b6000612dee6019836124c4565b9150612df982612db8565b602082019050919050565b60006020820190508181036000830152612e1d81612de1565b9050919050565b7f45524332305065726d69743a206578706972656420646561646c696e65000000600082015250565b6000612e5a601d836124c4565b9150612e6582612e24565b602082019050919050565b60006020820190508181036000830152612e8981612e4d565b9050919050565b600060c082019050612ea56000830189612738565b612eb2602083018861278f565b612ebf604083018761278f565b612ecc606083018661267a565b612ed9608083018561267a565b612ee660a083018461267a565b979650505050505050565b7f45524332305065726d69743a20696e76616c6964207369676e61747572650000600082015250565b6000612f27601e836124c4565b9150612f3282612ef1565b602082019050919050565b60006020820190508181036000830152612f5681612f1a565b9050919050565b7f4552433230566f7465733a20746f74616c20737570706c79207269736b73206f60008201527f766572666c6f77696e6720766f74657300000000000000000000000000000000602082015250565b6000612fb96030836124c4565b9150612fc482612f5d565b604082019050919050565b60006020820190508181036000830152612fe881612fac565b9050919050565b7f45524332303a206d696e7420746f20746865207a65726f206164647265737300600082015250565b6000613025601f836124c4565b915061303082612fef565b602082019050919050565b6000602082019050818103600083015261305481613018565b9050919050565b7f53616665436173743a2076616c756520646f65736e27742066697420696e203260008201527f3234206269747300000000000000000000000000000000000000000000000000602082015250565b60006130b76027836124c4565b91506130c28261305b565b604082019050919050565b600060208201905081810360008301526130e6816130aa565b9050919050565b7f53616665436173743a2076616c756520646f65736e27742066697420696e203360008201527f3220626974730000000000000000000000000000000000000000000000000000602082015250565b60006131496026836124c4565b9150613154826130ed565b604082019050919050565b600060208201905081810360008301526131788161313c565b9050919050565b7f45524332303a20617070726f76652066726f6d20746865207a65726f2061646460008201527f7265737300000000000000000000000000000000000000000000000000000000602082015250565b60006131db6024836124c4565b91506131e68261317f565b604082019050919050565b6000602082019050818103600083015261320a816131ce565b9050919050565b7f45524332303a20617070726f766520746f20746865207a65726f20616464726560008201527f7373000000000000000000000000000000000000000000000000000000000000602082015250565b600061326d6022836124c4565b915061327882613211565b604082019050919050565b6000602082019050818103600083015261329c81613260565b9050919050565b7f45524332303a20696e73756666696369656e7420616c6c6f77616e6365000000600082015250565b60006132d9601d836124c4565b91506132e4826132a3565b602082019050919050565b60006020820190508181036000830152613308816132cc565b9050919050565b7f45524332303a207472616e736665722066726f6d20746865207a65726f20616460008201527f6472657373000000000000000000000000000000000000000000000000000000602082015250565b600061336b6025836124c4565b91506133768261330f565b604082019050919050565b6000602082019050818103600083015261339a8161335e565b9050919050565b7f45524332303a207472616e7366657220746f20746865207a65726f206164647260008201527f6573730000000000000000000000000000000000000000000000000000000000602082015250565b60006133fd6023836124c4565b9150613408826133a1565b604082019050919050565b6000602082019050818103600083015261342c816133f0565b9050919050565b7f45524332303a207472616e7366657220616d6f756e742065786365656473206260008201527f616c616e63650000000000000000000000000000000000000000000000000000602082015250565b600061348f6026836124c4565b915061349a82613433565b604082019050919050565b600060208201905081810360008301526134be81613482565b9050919050565b60006040820190506134da600083018561267a565b6134e7602083018461267a565b9392505050565b600060a0820190506135036000830188612738565b6135106020830187612738565b61351d6040830186612738565b61352a606083018561267a565b613537608083018461278f565b9695505050505050565b7f4e487b7100000000000000000000000000000000000000000000000000000000600052601260045260246000fd5b600061357b826125ce565b9150613586836125ce565b92508261359657613595613541565b5b828204905092915050565b600081905092915050565b7f1901000000000000000000000000000000000000000000000000000000000000600082015250565b60006135e26002836135a1565b91506135ed826135ac565b600282019050919050565b6000819050919050565b61361361360e8261272e565b6135f8565b82525050565b6000613624826135d5565b91506136308285613602565b6020820191506136408284613602565b6020820191508190509392505050565b60006080820190506136656000830187612738565b6136726020830186612704565b61367f6040830185612738565b61368c6060830184612738565b95945050505050565b7f4e487b7100000000000000000000000000000000000000000000000000000000600052602160045260246000fd5b7f45434453413a20696e76616c6964207369676e61747572650000000000000000600082015250565b60006136fa6018836124c4565b9150613705826136c4565b602082019050919050565b60006020820190508181036000830152613729816136ed565b9050919050565b7f45434453413a20696e76616c6964207369676e6174757265206c656e67746800600082015250565b6000613766601f836124c4565b915061377182613730565b602082019050919050565b6000602082019050818103600083015261379581613759565b9050919050565b7f45434453413a20696e76616c6964207369676e6174757265202773272076616c60008201527f7565000000000000000000000000000000000000000000000000000000000000602082015250565b60006137f86022836124c4565b91506138038261379c565b604082019050919050565b60006020820190508181036000830152613827816137eb565b905091905056fea2646970667358221220cca09be0cd4a7ed8454bee7b4996dfd25e55011d02050493fc669d4299cb7a2064736f6c6343000811003360806040523480156200001157600080fd5b506040516200112c3803806200112c8339818101604052810190620000379190620002f2565b620000576200004b6200018160201b60201c565b6200018960201b60201c565b428210156200006557600080fd5b600083116200007357600080fd5b600073ffffffffffffffffffffffffffffffffffffffff168173ffffffffffffffffffffffffffffffffffffffff1603620000ad57600080fd5b600073ffffffffffffffffffffffffffffffffffffffff168473ffffffffffffffffffffffffffffffffffffffff1603620000e757600080fd5b83600160006101000a81548173ffffffffffffffffffffffffffffffffffffffff021916908373ffffffffffffffffffffffffffffffffffffffff160217905550826003819055508160028190555080600460006101000a81548173ffffffffffffffffffffffffffffffffffffffff021916908373ffffffffffffffffffffffffffffffffffffffff1602179055505050505062000364565b600033905090565b60008060009054906101000a900473ffffffffffffffffffffffffffffffffffffffff169050816000806101000a81548173ffffffffffffffffffffffffffffffffffffffff021916908373ffffffffffffffffffffffffffffffffffffffff1602179055508173ffffffffffffffffffffffffffffffffffffffff168173ffffffffffffffffffffffffffffffffffffffff167f8be0079c531659141344cd1fd0a4f28419497f9722a3daafe3b4186f6b6457e060405160405180910390a35050565b600080fd5b600073ffffffffffffffffffffffffffffffffffffffff82169050919050565b60006200027f8262000252565b9050919050565b620002918162000272565b81146200029d57600080fd5b50565b600081519050620002b18162000286565b92915050565b6000819050919050565b620002cc81620002b7565b8114620002d857600080fd5b50565b600081519050620002ec81620002c1565b92915050565b600080600080608085870312156200030f576200030e6200024d565b5b60006200031f87828801620002a0565b94505060206200033287828801620002db565b93505060406200034587828801620002db565b92505060606200035887828801620002a0565b91505092959194509250565b610db880620003746000396000f3fe6080604052600436106100a05760003560e01c8063715018a611610064578063715018a61461017e5780638da5cb5b14610195578063bf583903146101c0578063bff99c6c146101eb578063ec8ac4d814610216578063f2fde38b14610246576100b0565b80631515bc2b146100bb57806324600fc3146100e65780632c4e722e146100fd5780634042b66f146101285780634b6753bc14610153576100b0565b366100b0576100ae3361026f565b005b6100b93361026f565b005b3480156100c757600080fd5b506100d0610407565b6040516100dd919061082a565b60405180910390f35b3480156100f257600080fd5b506100fb610413565b005b34801561010957600080fd5b50610112610506565b60405161011f919061085e565b60405180910390f35b34801561013457600080fd5b5061013d61050c565b60405161014a919061085e565b60405180910390f35b34801561015f57600080fd5b50610168610512565b604051610175919061085e565b60405180910390f35b34801561018a57600080fd5b50610193610518565b005b3480156101a157600080fd5b506101aa61052c565b6040516101b791906108ba565b60405180910390f35b3480156101cc57600080fd5b506101d5610555565b6040516101e2919061085e565b60405180910390f35b3480156101f757600080fd5b5061020061061c565b60405161020d91906108ba565b60405180910390f35b610230600480360381019061022b9190610906565b61026f565b60405161023d919061085e565b60405180910390f35b34801561025257600080fd5b5061026d60048036038101906102689190610906565b610642565b005b600060025442111561028057600080fd5b6000349050600073ffffffffffffffffffffffffffffffffffffffff168373ffffffffffffffffffffffffffffffffffffffff16036102be57600080fd5b600081036102cb57600080fd5b6000600354346102db9190610962565b905081600560008282546102ef91906109a4565b925050819055600581905550600160009054906101000a900473ffffffffffffffffffffffffffffffffffffffff1673ffffffffffffffffffffffffffffffffffffffff166323b872dd600460009054906101000a900473ffffffffffffffffffffffffffffffffffffffff1633846040518463ffffffff1660e01b815260040161037c939291906109d8565b6020604051808303816000875af115801561039b573d6000803e3d6000fd5b505050506040513d601f19601f820116820180604052508101906103bf9190610a3b565b507f623b3804fa71d67900d064613da8f94b9617215ee90799290593e1745087ad18338584846040516103f59493929190610a68565b60405180910390a18092505050919050565b60006002544211905090565b6002544211610457576040517f08c379a000000000000000000000000000000000000000000000000000000000815260040161044e90610b0a565b60405180910390fd5b60003373ffffffffffffffffffffffffffffffffffffffff164760405161047d90610b5b565b60006040518083038185875af1925050503d80600081146104ba576040519150601f19603f3d011682016040523d82523d6000602084013e6104bf565b606091505b5050905080610503576040517f08c379a00000000000000000000000000000000000000000000000000000000081526004016104fa90610be2565b60405180910390fd5b50565b60035481565b60055481565b60025481565b6105206106c5565b61052a6000610743565b565b60008060009054906101000a900473ffffffffffffffffffffffffffffffffffffffff16905090565b6000600160009054906101000a900473ffffffffffffffffffffffffffffffffffffffff1673ffffffffffffffffffffffffffffffffffffffff1663dd62ed3e600460009054906101000a900473ffffffffffffffffffffffffffffffffffffffff16306040518363ffffffff1660e01b81526004016105d6929190610c02565b602060405180830381865afa1580156105f3573d6000803e3d6000fd5b505050506040513d601f19601f820116820180604052508101906106179190610c57565b905090565b600460009054906101000a900473ffffffffffffffffffffffffffffffffffffffff1681565b61064a6106c5565b600073ffffffffffffffffffffffffffffffffffffffff168173ffffffffffffffffffffffffffffffffffffffff16036106b9576040517f08c379a00000000000000000000000000000000000000000000000000000000081526004016106b090610cf6565b60405180910390fd5b6106c281610743565b50565b6106cd610807565b73ffffffffffffffffffffffffffffffffffffffff166106eb61052c565b73ffffffffffffffffffffffffffffffffffffffff1614610741576040517f08c379a000000000000000000000000000000000000000000000000000000000815260040161073890610d62565b60405180910390fd5b565b60008060009054906101000a900473ffffffffffffffffffffffffffffffffffffffff169050816000806101000a81548173ffffffffffffffffffffffffffffffffffffffff021916908373ffffffffffffffffffffffffffffffffffffffff1602179055508173ffffffffffffffffffffffffffffffffffffffff168173ffffffffffffffffffffffffffffffffffffffff167f8be0079c531659141344cd1fd0a4f28419497f9722a3daafe3b4186f6b6457e060405160405180910390a35050565b600033905090565b60008115159050919050565b6108248161080f565b82525050565b600060208201905061083f600083018461081b565b92915050565b6000819050919050565b61085881610845565b82525050565b6000602082019050610873600083018461084f565b92915050565b600073ffffffffffffffffffffffffffffffffffffffff82169050919050565b60006108a482610879565b9050919050565b6108b481610899565b82525050565b60006020820190506108cf60008301846108ab565b92915050565b600080fd5b6108e381610899565b81146108ee57600080fd5b50565b600081359050610900816108da565b92915050565b60006020828403121561091c5761091b6108d5565b5b600061092a848285016108f1565b91505092915050565b7f4e487b7100000000000000000000000000000000000000000000000000000000600052601160045260246000fd5b600061096d82610845565b915061097883610845565b925082820261098681610845565b9150828204841483151761099d5761099c610933565b5b5092915050565b60006109af82610845565b91506109ba83610845565b92508282019050808211156109d2576109d1610933565b5b92915050565b60006060820190506109ed60008301866108ab565b6109fa60208301856108ab565b610a07604083018461084f565b949350505050565b610a188161080f565b8114610a2357600080fd5b50565b600081519050610a3581610a0f565b92915050565b600060208284031215610a5157610a506108d5565b5b6000610a5f84828501610a26565b91505092915050565b6000608082019050610a7d60008301876108ab565b610a8a60208301866108ab565b610a97604083018561084f565b610aa4606083018461084f565b95945050505050565b600082825260208201905092915050565b7f53616c65207374696c6c206f6e676f696e670000000000000000000000000000600082015250565b6000610af4601283610aad565b9150610aff82610abe565b602082019050919050565b60006020820190508181036000830152610b2381610ae7565b9050919050565b600081905092915050565b50565b6000610b45600083610b2a565b9150610b5082610b35565b600082019050919050565b6000610b6682610b38565b9150819050919050565b7f4661696c656420746f2073656e642062616c616e636520746f20746865206f7760008201527f6e65720000000000000000000000000000000000000000000000000000000000602082015250565b6000610bcc602383610aad565b9150610bd782610b70565b604082019050919050565b60006020820190508181036000830152610bfb81610bbf565b9050919050565b6000604082019050610c1760008301856108ab565b610c2460208301846108ab565b9392505050565b610c3481610845565b8114610c3f57600080fd5b50565b600081519050610c5181610c2b565b92915050565b600060208284031215610c6d57610c6c6108d5565b5b6000610c7b84828501610c42565b91505092915050565b7f4f776e61626c653a206e6577206f776e657220697320746865207a65726f206160008201527f6464726573730000000000000000000000000000000000000000000000000000602082015250565b6000610ce0602683610aad565b9150610ceb82610c84565b604082019050919050565b60006020820190508181036000830152610d0f81610cd3565b9050919050565b7f4f776e61626c653a2063616c6c6572206973206e6f7420746865206f776e6572600082015250565b6000610d4c602083610aad565b9150610d5782610d16565b602082019050919050565b60006020820190508181036000830152610d7b81610d3f565b905091905056fea264697066735822122064c4d1afbd5bc44a19bff137f533b57408d99303735a5f8cbe6748fa16c7c55f64736f6c63430008110033",
  "devdoc": {
    "details": "Deployer mints the eng tokens and creates the token sale.  It holds the remaining tokens",
    "kind": "dev",
    "methods": {
      "constructor": {
        "details": "Constructor Mints `mintAmount` tokens into the contract and starts the sale period that ends at currentTime + 30 days. `saleAmount` tokens are given as allowance to the sale."
      },
      "getFunds()": {
        "details": "Gets funds from `sale` into the contract"
      },
      "owner()": {
        "details": "Returns the address of the current owner."
      },
      "renounceOwnership()": {
        "details": "Leaves the contract without owner. It will not be possible to call `onlyOwner` functions anymore. Can only be called by the current owner. NOTE: Renouncing ownership will leave the contract without an owner, thereby removing any functionality that is only available to the owner."
      },
      "sendFunds(address)": {
        "details": "Sends funds to a given `_receiver`",
        "params": {
          "_receiver": "Receiver address"
        }
      },
      "transferOwnership(address)": {
        "details": "Transfers ownership of the contract to a new account (`newOwner`). Can only be called by the current owner."
      }
    },
    "title": "EngDeployer",
    "version": 1
  },
  "userdoc": {
    "kind": "user",
    "methods": {
      "saleAmount()": {
        "notice": "Amount of tokens to sale"
      }
    },
    "version": 1
  },
  "storageLayout": {
    "storage": [
      {
        "astId": 7,
        "contract": "contracts/EngDeployer.sol:EngDeployer",
        "label": "_owner",
        "offset": 0,
        "slot": "0",
        "type": "t_address"
      },
      {
        "astId": 4992,
        "contract": "contracts/EngDeployer.sol:EngDeployer",
        "label": "mintAmout",
        "offset": 0,
        "slot": "1",
        "type": "t_uint256"
      },
      {
        "astId": 5000,
        "contract": "contracts/EngDeployer.sol:EngDeployer",
        "label": "saleAmount",
        "offset": 0,
        "slot": "2",
        "type": "t_uint256"
      },
      {
        "astId": 5003,
        "contract": "contracts/EngDeployer.sol:EngDeployer",
        "label": "sale",
        "offset": 0,
        "slot": "3",
        "type": "t_contract(Sale)5456"
      },
      {
        "astId": 5006,
        "contract": "contracts/EngDeployer.sol:EngDeployer",
        "label": "token",
        "offset": 0,
        "slot": "4",
        "type": "t_contract(EngToken)5209"
      }
    ],
    "types": {
      "t_address": {
        "encoding": "inplace",
        "label": "address",
        "numberOfBytes": "20"
      },
      "t_contract(EngToken)5209": {
        "encoding": "inplace",
        "label": "contract EngToken",
        "numberOfBytes": "20"
      },
      "t_contract(Sale)5456": {
        "encoding": "inplace",
        "label": "contract Sale",
        "numberOfBytes": "20"
      },
      "t_uint256": {
        "encoding": "inplace",
        "label": "uint256",
        "numberOfBytes": "32"
      }
    }
  }
}